:020000020000FC
:0200000009C134
:1002000048656C6C6F2C20576F726C64000002287C
:100210000C06010000E40EBF0FEF0DBF04D0E0E0BC
:10022000F2E00FD0FFCF0FEF01B92DD0EEE0F2E0FA
:1002300001D008950591002319F0442709D0FACF81
:1002400008950591002319F041E002D0FACF0895F6
:100250004F93202F207F302F3295307F12B11F70A7
:10026000122B4F91142B12B9119A0DD011984F9354
:1002700012B11F70132B4F91142B12B9119A03D086
:10028000119801D0089504E116E91A95F1F70A953D
:04029000D9F70895FD
:00000001FF
