:020000020000FC
:020000000BC132
:10020000456E746572206120737472696E673A205E
:10021000000002280C06010000E40EBF0FEF0DBF26
:100220000BD042D0789460E070E080E000E83BDFE3
:10023000E0E0F2E04DD0FFCF0FEF01B94FD0E2E1A7
:10024000F2E001D008950591002311F002D0FBCF18
:1002500008950F9314D00F910895603148F40F93CF
:10026000109A0DD010980F916395703009F4862F75
:1002700008950F93109A03D010980F910895202F8E
:10028000207F302F3295307F12B11F70122B12B9A0
:10029000119A24D0119812B11F70132B12B9119A10
:1002A0001DD011981BD0089507E00093C40000E012
:1002B0000093C50008E90093C10006E00093C20066
:1002C00008951091C00015FFFCCF0093C60008955B
:1002D0000591002311F0F5DFFBCF089504E116E945
:0A02E0001A95F1F70A95D9F7089571
:100050000091C600083021F00D30C1F0FED0189597
:10006000603059F06A9500E11ED000E202D100E153
:100070001AD0703009F4862F1895713031F470E081
:10008000682F00E8080F0FD018951895703031F4DC
:10009000862F00EC08D060E071E0189500E803D0EE
:1000A00060E070E018950F931098E9D0109A0F91C6
:0200B0000895B1
:00000001FF
