:020000020000FC
:020000000BC132
:10020000456E746572206120737472696E673A205E
:10021000000002280C06010000E40EBF0FEF0DBF26
:1002200006D035D07894E0E0F2E045D0FFCF0FEF74
:1002300001B947D0E2E1F2E001D008950591002331
:1002400019F0442709D0FACF08950591002319F039
:1002500041E002D0FACF08954F93202F207F302F16
:100260003295307F12B11F70122B4F91142B12B99F
:10027000119A27D011984F9312B11F70132B4F91E1
:10028000142B12B9119A1DD011981BD0089507E0B4
:100290000093C40000E00093C50008E90093C1008A
:1002A00006E00093C20008951091C00015FFFCCF36
:1002B0000093C60008950591002311F0F5DFFBCFF0
:1002C000089504E116E91A95F1F70A95D9F708950A
:0C0050000091C60041E000D127D11895B6
:00000001FF
