:020000020000FC
:0200000009C134
:10020000546865206E756D6265722069733A2000CE
:1002100077EFDA0500E40EBF0FEF0DBF2CD0E0E062
:10022000F2E03DD0E0E1F2E0A0E0B1E002D03DD06C
:10023000FFCF45915591659175910DD0005D0D935E
:100240004423D9F75523C9F76623B9F77723A9F7CC
:1002500000E00C9308958827002790E2440F551F73
:10026000661F771F881F8A3010F08A5041609A9568
:10027000A9F7082F089507E00093C40000E0009359
:10028000C50008E10093C10006E00093C200089594
:100290001091C00015FFFCCF0093C6000895059192
:1002A000002311F0F5DFFBCF08950E91002311F02C
:0602B000EFDFFBCF089513
:00000001FF
